:100000000C9434000C9451000C9451000C94510049
:100010000C9451000C9451000C9451000C9451001C
:100020000C9451000C9451000C9451000C94D40089
:100030000C9451000C9451000C9451000C945100FC
:100040000C9451000C9451000C9451000C945100EC
:100050000C9451000C9451000C9451000C945100DC
:100060000C9451000C94510011241FBECFEFD8E026
:10007000DEBFCDBF11E0A0E0B1E0E0E6F8E002C0F5
:1000800005900D92A631B107D9F721E0A6E1B1E0C4
:1000900001C01D92A135B207E1F70E946A010C94DC
:1000A0002E040C9400000F931F93CF93DF938C01C9
:1000B0008091160190911701892B81F0E6E1F1E022
:1000C00021E030E0822FE901A781B0852F5F3F4F0B
:1000D0003796AB2BB9F7853021F415C0C0E0D0E0DE
:1000E00080E0FE01EE0FFF1FEE0FFF1FEE0FFF1F60
:1000F000EC1BFD0BEA5EFE4F11830083738362836A
:10010000558344831682DF91CF911F910F910895FB
:1001100027E0829FC0011124FC01EA5EFE4F11829C
:1001200010821382128215821482168280E0089552
:10013000EF92FF921F93CF93DF93C6E1D1E010E0DF
:100140008E81882379F0E881F981309759F00995FB
:100150008E8181508E838C819D81892B19F4812F12
:100160000E9488001F5F2796153051F7DF91CF91CD
:100170001F91FF90EF900895CF93C0E08C2F0E94C5
:100180008800CF5FC530D1F781E792E09093890076
:10019000809388008CE08093810082E080936F00E0
:1001A000CF910895789408951F920F920FB60F92F1
:1001B00011242F933F938F939F93AF93BF93EF930C
:1001C000FF93E6E1F1E029E331E080819181892B21
:1001D00091F082819381009759F486818F5F8683A5
:1001E00084819581009739F001979383828303C0BE
:1001F0000197938382833796E217F30731F7FF91D4
:10020000EF91BF91AF919F918F913F912F910F905F
:100210000FBE0F901F9018951092C50083E3809336
:10022000C40088E18093C10086E08093C2000895F5
:100230000E94BC0044E650E061E070E084E991E097
:100240000E94530044E650E062E070E088EC91E0E8
:100250000E94530044E650E063E070E086EF91E0D6
:100260000E94530042E350E064E070E08FE691E0CA
:100270000E9453000E94D2000895EAE7F0E08081D6
:1002800087608083ACE7B0E08C9180648C93808140
:10029000806880838081806480830895579A56980F
:1002A0000895239A249A259A2D9A08950E943D0133
:1002B0000E940C010E944E010E9418010E945101EF
:1002C0002FEF81EE94E0215080409040E1F700C094
:1002D000000008950E9456010E949800FDCFCF9320
:1002E000DF9386E091E00E943002C0E0D1E0888197
:1002F00099810E9430028AE091E00E9430028A8156
:100300009B810E9430028EE091E00E9430028C813D
:100310009D810E94300282E191E00E9430020E94A1
:100320003F02DF91CF91089580E00E944602BC0118
:1003300080E090E00E94FE0220E030E040E85AE3D6
:100340000E948C0320E030E040EA50E40E948C03DD
:1003500020E030E040E05FE30E945B0220E030E01C
:1003600048EC52E40E948C030E94CF02DC01CB01D6
:1003700090933A01809339014AE060E471E00E9471
:10038000F90380E491E090930101809300010895C6
:1003900081E00E944602BC0180E090E00E94FE02E3
:1003A00020E030E040E85AE30E948C0320E030E097
:1003B00048EC52E40E948C0320E030E040EC5FE324
:1003C0000E948C030E94CF02DC01CB0190933A0182
:1003D000809339014AE06BE371E00E94F9038BE3FB
:1003E00091E09093030180930201089580E496E0E8
:1003F00090938900809388005F9A85E38A95F1F74E
:1004000000005F984E9BFECF1092850010928400F2
:100410004E99FECF609184007091850080E090E05D
:100420000E94FE0220E030E040E85EE30E948C0380
:100430000E94C802DC01CB014AE067E471E00E943F
:10044000F90387E491E090930501809304010895F6
:10045000E0ECF0E0908195FFFDCF8093C600089519
:10046000CF93DF93EC018881882331F021960E949D
:10047000280289918111FBCFDF91CF9108958DE002
:100480000E9428028AE00E9428020895ECE7F0E02A
:100490009081907F90839081892B8083EAE7F0E0C0
:1004A000808180648083808186FDFDCF809178008B
:1004B0009091790008955058BB27AA270E94730293
:1004C0000C9452030E94440338F00E944B0320F026
:1004D00039F49F3F19F426F40C9441030EF4E0958F
:1004E000E7FB0C943B03E92F0E94630358F3BA1710
:1004F000620773078407950720F079F4A6F50C943A
:1005000085030EF4E0950B2EBA2FA02D0B01B90137
:1005100090010C01CA01A0011124FF27591B99F079
:10052000593F50F4503E68F11A16F040A22F232F85
:10053000342F4427585FF3CF469537952795A795D5
:10054000F0405395C9F77EF41F16BA0B620B730B7C
:10055000840BBAF09150A1F0FF0FBB1F661F771FED
:10056000881FC2F70EC0BA0F621F731F841F48F4A2
:10057000879577956795B795F7959E3F08F0B0CF2B
:100580009395880F08F09927EE0F97958795089512
:100590000E94CF026894B1110C94860308950E94C2
:1005A0006B0388F09F5798F0B92F9927B751B0F097
:1005B000E1F0660F771F881F991F1AF0BA95C9F7E7
:1005C00014C0B13091F00E948503B1E008950C94FD
:1005D0008503672F782F8827B85F39F0B93FCCF3B0
:1005E000869577956795B395D9F73EF49095809564
:1005F000709561957F4F8F4F9F4F0895E89409C084
:1006000097FB3EF490958095709561957F4F8F4F45
:100610009F4F9923A9F0F92F96E9BB279395F6955B
:10062000879577956795B795F111F8CFFAF4BB0FD9
:1006300011F460FF1BC06F5F7F4F8F4F9F4F16C03D
:10064000882311F096E911C0772321F09EE8872FC7
:10065000762F05C0662371F096E8862F70E060E083
:100660002AF09A95660F771F881FDAF7880F9695FC
:10067000879597F9089597F99F6780E870E060E0A3
:1006800008959FEF80EC089500240A94161617062B
:1006900018060906089500240A9412161306140673
:1006A00005060895092E0394000C11F4882352F0D6
:1006B000BB0F40F4BF2B11F460FF04C06F5F7F4F8E
:1006C0008F4F9F4F089557FD9058440F551F59F075
:1006D0005F3F71F04795880F97FB991F61F09F3F2F
:1006E00079F087950895121613061406551FF2CF58
:1006F0004695F1DF08C0161617061806991FF1CFA8
:1007000086957105610508940895E894BB276627CE
:100710007727CB0197F908950E949F030C94520309
:100720000E94440338F00E944B0320F0952311F0FF
:100730000C943B030C94410311240C9486030E94F7
:10074000630370F3959FC1F3950F50E0551F629FAF
:10075000F001729FBB27F00DB11D639FAA27F00D1A
:10076000B11DAA1F649F6627B00DA11D661F829F41
:100770002227B00DA11D621F739FB00DA11D621F26
:10078000839FA00D611D221F749F3327A00D611D43
:10079000231F849F600D211D822F762F6A2F112425
:1007A0009F5750409AF0F1F088234AF0EE0FFF1F58
:1007B000BB1F661F771F881F91505040A9F79E3FAF
:1007C000510580F00C943B030C9486035F3FE4F3E7
:1007D000983ED4F3869577956795B795F795E79505
:1007E0009F5FC1F7FE2B880F911D9695879597F90E
:1007F0000895BB274A3031F4992322F4BDE2909545
:1008000081959F4F0C940504BB27FB015527AA2710
:10081000880F991FAA1FA41710F0A41B839550518D
:10082000B9F7A05DAA3308F0A95DA193009779F705
:10083000B111B1931192CB010C941E04DC01FC01A7
:10084000672F71917723E1F7329704C07C916D9304
:1008500070836291AE17BF07C8F30895F894FFCF75
:100860001401140114017B743A002C6C3A002C64BE
:060870003A007D0030009B
:00000001FF
