S0180000456D6265646465645F53797374656D732E73726563AB
S11300000C9434000C9451000C9451000C94510045
S11300100C9451000C9451000C9451000C94510018
S11300200C9451000C9451000C9451000C94D40085
S11300300C9451000C9451000C9451000C945100F8
S11300400C9451000C9451000C9451000C945100E8
S11300500C9451000C9451000C9451000C945100D8
S11300600C9451000C94510011241FBECFEFD8E022
S1130070DEBFCDBF11E0A0E0B1E0EEE0FAE002C0E7
S113008005900D92A232B107D9F721E0A2E2B1E0C6
S113009001C01D92AD35B207E1F70E94EF010C9447
S11300A005050C9400000F931F93CF93DF938C01ED
S11300B08091220190912301892B81F0E2E2F1E009
S11300C021E030E0822FE901A781B0852F5F3F4F07
S11300D03796AB2BB9F7853021F415C0C0E0D0E0DA
S11300E080E0FE01EE0FFF1FEE0FFF1FEE0FFF1F5C
S11300F0EC1BFD0BEE5DFE4F118300837383628363
S1130100558344831682DF91CF911F910F910895F7
S113011027E0829FC0011124FC01EE5DFE4F118295
S113012010821382128215821482168280E008954E
S1130130EF92FF921F93CF93DF93C2E2D1E010E0DE
S11301408E81882379F0E881F981309759F00995F7
S11301508E8181508E838C819D81892B19F4812F0E
S11301600E9488001F5F2796153051F7DF91CF91C9
S11301701F91FF90EF900895CF93C0E08C2F0E94C1
S11301808800CF5FC530D1F781E792E09093890072
S1130190809388008CE08093810082E080936F00DC
S11301A0CF910895789408951F920F920FB60F92ED
S11301B011242F933F938F939F93AF93BF93EF9308
S11301C0FF93E2E2F1E025E431E080819181892B23
S11301D091F082819381009759F486818F5F8683A1
S11301E084819581009739F001979383828303C0BA
S11301F00197938382833796E217F30731F7FF91D0
S1130200EF91BF91AF919F918F913F912F910F905B
S11302100FBE0F901F9018950F931F93CF93DF93EA
S113022087E491E00E94AA04EC018CE491E00E942E
S1130230AA048C010E94AD0283E591E00E94AA0405
S11302402091060130910701C217D3073CF4209195
S11302500A0130910B0102171307FCF02D982B9A19
S11302602091000130910101281739070CF040C09A
S11302702C9A2FEF81EE94E0215080409040E1F7DA
S113028000C000002C982FEF81EE94E021508040B4
S11302909040E1F700C000002BC020910401309190
S11302A005012C173D073CF4209108013091090108
S11302B020173107ECF02B982D9A209102013091F0
S11302C0030182179307A4F42C9A2FEF81EE94E094
S11302D0215080409040E1F700C000002C982FEF9F
S11302E081EE94E0215080409040E1F700C000008E
S11302F0DF91CF911F910F9108951092C0008EE06D
S11303008093C20008951092C50083E38093C400D3
S1130310E1ECF0E088E1808386E08093C200808194
S11303208068808308950E94BC0044E650E061E048
S113033070E089E192E00E94530044E650E062E0FC
S113034070E08DE492E00E94530044E650E063E0E4
S113035070E08BE792E00E94530042E350E064E0D7
S113036070E084EF91E00E94530049E150E060E0C6
S113037070E08CE091E00E9453000E94D200089546
S1130380EAE7F0E0808187608083ACE7B0E08C919D
S113039080648C9380818068808380818064808382
S11303A00895579A56980895239A249A259A2D9A2F
S11303B008950E947D010E94C0010E9483010E9451
S11303C0D1010E9493010E94D4012FEF81EE94E0A9
S11303D0215080409040E1F700C0000008950E9441
S11303E0D9010E949800FDCFCF93DF9382E191E081
S11303F00E94E102CCE0D1E0888199810E94E1026F
S113040086E191E00E94E1028A819B810E94E102DF
S11304108AE191E00E94E1028C819D810E94E102C7
S11304208EE191E00E94E1020E94F002DF91CF91FF
S1130430089580E00E94F702BC0180E090E00E94F1
S1130440AF0320E030E040E85AE30E943D0420E09E
S113045030E040EA50E40E943D0420E030E040E017
S11304605FE30E940C0320E030E048EC52E40E9479
S11304703D040E948003DC01CB01909346018093EC
S113048045014AE06CE471E00E94C8048CE491E008
S113049090930D0180930C01089581E00E94F7026E
S11304A0BC0180E090E00E94AF0320E030E040E82F
S11304B05AE30E943D0420E030E048EC52E40E94FC
S11304C03D0420E030E040EC5FE30E943D040E94E4
S11304D08003DC01CB0190934601809345014AE0FF
S11304E067E471E00E94C80487E491E090930F01EF
S11304F080930E01089580E496E0909389008093A0
S113050088005F9A85E38A95F1F700005F984E9B17
S1130510FECF10928500109284004E99FECF609118
S113052084007091850080E090E00E94AF0320E099
S113053030E040E85EE30E943D040E947903DC0160
S1130540CB014AE063E571E00E94C80483E591E0D1
S11305509093110180931001089580E496E09093A4
S11305608900809388005F9A85E38A95F1F70000FB
S11305705F984E9BFECF10928500109284004E9996
S1130580FECF609184007091850080E090E00E942D
S1130590AF0320E030E040E85EE30E943D040E94A7
S11305A07903DC01CB014AE063E571E00E94C804F1
S11305B00895E0ECF0E0908195FFFDCF8093C600B4
S11305C00895CF93DF93EC018881882331F021963D
S11305D00E94D90289918111FBCFDF91CF910895B7
S11305E08DE00E94D9028AE00E94D9020895ECE7C6
S11305F0F0E09081907F90839081892B8083EAE75B
S1130600F0E0808180648083808186FDFDCF8091CD
S113061078009091790008955058BB27AA270E942A
S113062024030C9403040E94F50338F00E94FC0395
S113063020F039F49F3F19F426F40C94F2030EF4DD
S1130640E095E7FB0C94EC03E92F0E94140458F3A3
S1130650BA17620773078407950720F079F4A6F5A3
S11306600C9436040EF4E0950B2EBA2FA02D0B013A
S1130670B90190010C01CA01A0011124FF27591BE3
S113068099F0593F50F4503E68F11A16F040A22FE9
S1130690232F342F4427585FF3CF4695379527955A
S11306A0A795F0405395C9F77EF41F16BA0B620B59
S11306B0730B840BBAF09150A1F0FF0FBB1F661FA0
S11306C0771F881FC2F70EC0BA0F621F731F841FE3
S11306D048F4879577956795B795F7959E3F08F009
S11306E0B0CF9395880F08F09927EE0F97958795CB
S11306F008950E9480036894B1110C9437040895FE
S11307000E941C0488F09F5798F0B92F9927B7517D
S1130710B0F0E1F0660F771F881F991F1AF0BA95A1
S1130720C9F714C0B13091F00E943604B1E00895C5
S11307300C943604672F782F8827B85F39F0B93FB7
S1130740CCF3869577956795B395D9F73EF4909554
S11307508095709561957F4F8F4F9F4F0895E894D2
S113076009C097FB3EF490958095709561957F4FF5
S11307708F4F9F4F9923A9F0F92F96E9BB279395A3
S1130780F695879577956795B795F111F8CFFAF4B3
S1130790BB0F11F460FF1BC06F5F7F4F8F4F9F4FE4
S11307A016C0882311F096E911C0772321F09EE842
S11307B0872F762F05C0662371F096E8862F70E0A8
S11307C060E02AF09A95660F771F881FDAF7880F82
S11307D09695879597F9089597F99F6780E870E053
S11307E060E008959FEF80EC089500240A941616A3
S11307F0170618060906089500240A94121613060B
S1130800140605060895092E0394000C11F4882398
S113081052F0BB0F40F4BF2B11F460FF04C06F5FB4
S11308207F4F8F4F9F4F089557FD9058440F551F8A
S113083059F05F3F71F04795880F97FB991F61F05E
S11308409F3F79F087950895121613061406551FD5
S1130850F2CF4695F1DF08C0161617061806991F41
S1130860F1CF86957105610508940895E894BB2736
S113087066277727CB0197F908950E9450040C94BA
S113088003040E94F50338F00E94FC0320F0952332
S113089011F00C94EC030C94F20311240C9437041F
S11308A00E94140470F3959FC1F3950F50E0551FF7
S11308B0629FF001729FBB27F00DB11D639FAA27B1
S11308C0F00DB11DAA1F649F6627B00DA11D661F00
S11308D0829F2227B00DA11D621F739FB00DA11D21
S11308E0621F839FA00D611D221F749F3327A00DDB
S11308F0611D231F849F600D211D822F762F6A2F77
S113090011249F5750409AF0F1F088234AF0EE0FDB
S1130910FF1FBB1F661F771F881F91505040A9F708
S11309209E3F510580F00C94EC030C9437045F3F18
S1130930E4F3983ED4F3869577956795B795F79544
S1130940E7959F5FC1F7FE2B880F911D96958795BC
S113095097F90895FC0188279927E894219120327A
S1130960E9F3293010F02E30C8F32B3241F02D3248
S113097039F4689404C00E94D304820F911D21911C
S113098020532A30C0F31EF4909581959F4F08950B
S1130990BB274A3031F4992322F4BDE29095819526
S11309A09F4F0C94DC047AE0979F902D879F802DB5
S11309B0910D11240895BB27FB015527AA27880F01
S11309C0991FAA1FA41710F0A41B83955051B9F7BF
S11309D0A05DAA3308F0A95DA193009779F7B1113E
S11309E0B1931192CB010C94F504DC01FC01672F47
S11309F071917723E1F7329704C07C916D937083F2
S1110A006291AE17BF07C8F30895F894FFCFB4
S1130A0E0500280010003C001100170020012001F1
S1130A1E20017B743A002C6C3A002C643A007D0061
S1050A2E300092
S9030000FC
